{
  "contractName": "Evidence",
  "abi": [
    {
      "anonymous": false,
      "inputs": [
        {
          "indexed": true,
          "internalType": "uint256",
          "name": "_evidenceId",
          "type": "uint256"
        }
      ],
      "name": "evidenceCreated",
      "type": "event"
    },
    {
      "anonymous": false,
      "inputs": [
        {
          "indexed": true,
          "internalType": "uint256",
          "name": "_userId",
          "type": "uint256"
        }
      ],
      "name": "userCreated",
      "type": "event"
    },
    {
      "inputs": [],
      "name": "evidenceCount",
      "outputs": [
        {
          "internalType": "uint256",
          "name": "",
          "type": "uint256"
        }
      ],
      "stateMutability": "view",
      "type": "function",
      "constant": true
    },
    {
      "inputs": [
        {
          "internalType": "uint256",
          "name": "",
          "type": "uint256"
        }
      ],
      "name": "evidenceList",
      "outputs": [
        {
          "internalType": "string",
          "name": "evidence_id",
          "type": "string"
        },
        {
          "internalType": "string",
          "name": "officer_name",
          "type": "string"
        },
        {
          "internalType": "string",
          "name": "reported_crime",
          "type": "string"
        },
        {
          "internalType": "string",
          "name": "crime_details",
          "type": "string"
        },
        {
          "internalType": "string",
          "name": "evidence_details",
          "type": "string"
        },
        {
          "internalType": "string",
          "name": "crime_area",
          "type": "string"
        },
        {
          "internalType": "string",
          "name": "witness_name",
          "type": "string"
        },
        {
          "internalType": "string",
          "name": "witness_contact",
          "type": "string"
        },
        {
          "internalType": "string",
          "name": "crime_date",
          "type": "string"
        }
      ],
      "stateMutability": "view",
      "type": "function",
      "constant": true
    },
    {
      "inputs": [],
      "name": "userCount",
      "outputs": [
        {
          "internalType": "uint256",
          "name": "",
          "type": "uint256"
        }
      ],
      "stateMutability": "view",
      "type": "function",
      "constant": true
    },
    {
      "inputs": [
        {
          "internalType": "uint256",
          "name": "",
          "type": "uint256"
        }
      ],
      "name": "usersList",
      "outputs": [
        {
          "internalType": "string",
          "name": "username",
          "type": "string"
        },
        {
          "internalType": "string",
          "name": "password",
          "type": "string"
        },
        {
          "internalType": "string",
          "name": "phone",
          "type": "string"
        },
        {
          "internalType": "string",
          "name": "email",
          "type": "string"
        },
        {
          "internalType": "string",
          "name": "station_address",
          "type": "string"
        },
        {
          "internalType": "string",
          "name": "officer_type",
          "type": "string"
        }
      ],
      "stateMutability": "view",
      "type": "function",
      "constant": true
    },
    {
      "inputs": [
        {
          "internalType": "string",
          "name": "eid",
          "type": "string"
        },
        {
          "internalType": "string",
          "name": "oname",
          "type": "string"
        },
        {
          "internalType": "string",
          "name": "crime",
          "type": "string"
        },
        {
          "internalType": "string",
          "name": "cd",
          "type": "string"
        },
        {
          "internalType": "string",
          "name": "ed",
          "type": "string"
        },
        {
          "internalType": "string",
          "name": "ca",
          "type": "string"
        },
        {
          "internalType": "string",
          "name": "wn",
          "type": "string"
        },
        {
          "internalType": "string",
          "name": "wc",
          "type": "string"
        },
        {
          "internalType": "string",
          "name": "crime_dd",
          "type": "string"
        }
      ],
      "name": "createEvidence",
      "outputs": [],
      "stateMutability": "nonpayable",
      "type": "function"
    },
    {
      "inputs": [],
      "name": "getEvidenceCount",
      "outputs": [
        {
          "internalType": "uint256",
          "name": "",
          "type": "uint256"
        }
      ],
      "stateMutability": "view",
      "type": "function",
      "constant": true
    },
    {
      "inputs": [
        {
          "internalType": "uint256",
          "name": "i",
          "type": "uint256"
        }
      ],
      "name": "getEvidenceid",
      "outputs": [
        {
          "internalType": "string",
          "name": "",
          "type": "string"
        }
      ],
      "stateMutability": "view",
      "type": "function",
      "constant": true
    },
    {
      "inputs": [
        {
          "internalType": "uint256",
          "name": "i",
          "type": "uint256"
        }
      ],
      "name": "getOfficername",
      "outputs": [
        {
          "internalType": "string",
          "name": "",
          "type": "string"
        }
      ],
      "stateMutability": "view",
      "type": "function",
      "constant": true
    },
    {
      "inputs": [
        {
          "internalType": "uint256",
          "name": "i",
          "type": "uint256"
        }
      ],
      "name": "getReportedcrime",
      "outputs": [
        {
          "internalType": "string",
          "name": "",
          "type": "string"
        }
      ],
      "stateMutability": "view",
      "type": "function",
      "constant": true
    },
    {
      "inputs": [
        {
          "internalType": "uint256",
          "name": "i",
          "type": "uint256"
        }
      ],
      "name": "getCrimedetails",
      "outputs": [
        {
          "internalType": "string",
          "name": "",
          "type": "string"
        }
      ],
      "stateMutability": "view",
      "type": "function",
      "constant": true
    },
    {
      "inputs": [
        {
          "internalType": "uint256",
          "name": "i",
          "type": "uint256"
        }
      ],
      "name": "getEvidencedetails",
      "outputs": [
        {
          "internalType": "string",
          "name": "",
          "type": "string"
        }
      ],
      "stateMutability": "view",
      "type": "function",
      "constant": true
    },
    {
      "inputs": [
        {
          "internalType": "uint256",
          "name": "i",
          "type": "uint256"
        }
      ],
      "name": "getCrimearea",
      "outputs": [
        {
          "internalType": "string",
          "name": "",
          "type": "string"
        }
      ],
      "stateMutability": "view",
      "type": "function",
      "constant": true
    },
    {
      "inputs": [
        {
          "internalType": "uint256",
          "name": "i",
          "type": "uint256"
        }
      ],
      "name": "getWitnessname",
      "outputs": [
        {
          "internalType": "string",
          "name": "",
          "type": "string"
        }
      ],
      "stateMutability": "view",
      "type": "function",
      "constant": true
    },
    {
      "inputs": [
        {
          "internalType": "uint256",
          "name": "i",
          "type": "uint256"
        }
      ],
      "name": "getCrimedate",
      "outputs": [
        {
          "internalType": "string",
          "name": "",
          "type": "string"
        }
      ],
      "stateMutability": "view",
      "type": "function",
      "constant": true
    },
    {
      "inputs": [
        {
          "internalType": "uint256",
          "name": "i",
          "type": "uint256"
        }
      ],
      "name": "getWitnesscontact",
      "outputs": [
        {
          "internalType": "string",
          "name": "",
          "type": "string"
        }
      ],
      "stateMutability": "view",
      "type": "function",
      "constant": true
    },
    {
      "inputs": [
        {
          "internalType": "string",
          "name": "_username",
          "type": "string"
        },
        {
          "internalType": "string",
          "name": "_password",
          "type": "string"
        },
        {
          "internalType": "string",
          "name": "_phone",
          "type": "string"
        },
        {
          "internalType": "string",
          "name": "em",
          "type": "string"
        },
        {
          "internalType": "string",
          "name": "sa",
          "type": "string"
        },
        {
          "internalType": "string",
          "name": "otype",
          "type": "string"
        }
      ],
      "name": "createUser",
      "outputs": [],
      "stateMutability": "nonpayable",
      "type": "function"
    },
    {
      "inputs": [],
      "name": "getUserCount",
      "outputs": [
        {
          "internalType": "uint256",
          "name": "",
          "type": "uint256"
        }
      ],
      "stateMutability": "view",
      "type": "function",
      "constant": true
    },
    {
      "inputs": [
        {
          "internalType": "uint256",
          "name": "i",
          "type": "uint256"
        }
      ],
      "name": "getUsername",
      "outputs": [
        {
          "internalType": "string",
          "name": "",
          "type": "string"
        }
      ],
      "stateMutability": "view",
      "type": "function",
      "constant": true
    },
    {
      "inputs": [
        {
          "internalType": "uint256",
          "name": "i",
          "type": "uint256"
        }
      ],
      "name": "getPassword",
      "outputs": [
        {
          "internalType": "string",
          "name": "",
          "type": "string"
        }
      ],
      "stateMutability": "view",
      "type": "function",
      "constant": true
    },
    {
      "inputs": [
        {
          "internalType": "uint256",
          "name": "i",
          "type": "uint256"
        }
      ],
      "name": "getPhone",
      "outputs": [
        {
          "internalType": "string",
          "name": "",
          "type": "string"
        }
      ],
      "stateMutability": "view",
      "type": "function",
      "constant": true
    },
    {
      "inputs": [
        {
          "internalType": "uint256",
          "name": "i",
          "type": "uint256"
        }
      ],
      "name": "getEmail",
      "outputs": [
        {
          "internalType": "string",
          "name": "",
          "type": "string"
        }
      ],
      "stateMutability": "view",
      "type": "function",
      "constant": true
    },
    {
      "inputs": [
        {
          "internalType": "uint256",
          "name": "i",
          "type": "uint256"
        }
      ],
      "name": "getStationaddress",
      "outputs": [
        {
          "internalType": "string",
          "name": "",
          "type": "string"
        }
      ],
      "stateMutability": "view",
      "type": "function",
      "constant": true
    },
    {
      "inputs": [
        {
          "internalType": "uint256",
          "name": "i",
          "type": "uint256"
        }
      ],
      "name": "getOfficerType",
      "outputs": [
        {
          "internalType": "string",
          "name": "",
          "type": "string"
        }
      ],
      "stateMutability": "view",
      "type": "function",
      "constant": true
    }
  ],
  "bytecode": "0x608060405260008055600060025534801561001957600080fd5b506156e3806200002a6000396000f3fe608060405234801561001057600080fd5b5060043610610169576000357c010000000000000000000000000000000000000000000000000000000090048063a2ed5af0116100e0578063ecd0117111610099578063ecd01171146102d4578063ee0c8334146102e7578063f10b82df146102fa578063f18d18cc1461030d578063f21d6c7214610320578063f38c6bb61461033357600080fd5b8063a2ed5af014610282578063adb388ea1461028b578063b455a13a1461029e578063b5cb15f7146102b1578063b8d44487146102b9578063dae1ab04146102c157600080fd5b80632e7d44b5116101325780632e7d44b5146101fe578063502aa3b514610211578063555a708f14610236578063567b892814610249578063972fe8bc1461025c5780639fef410f1461026f57600080fd5b8062b31b711461016e57806301dadb2b1461019f578063036d57dd146101b457806307973ccf146101d45780631b8f32a7146101eb575b600080fd5b61018161017c36600461513a565b610346565b604051610196999897969594939291906151a0565b60405180910390f35b6101b26101ad366004615321565b610854565b005b6101c76101c236600461513a565b610980565b6040516101969190615416565b6101dd60025481565b604051908152602001610196565b6101c76101f936600461513a565b610ed1565b6101c761020c36600461513a565b611422565b61022461021f36600461513a565b6117bc565b60405161019696959493929190615430565b6101c761024436600461513a565b611b20565b6101b26102573660046154b2565b612071565b6101c761026a36600461513a565b61220e565b6101c761027d36600461513a565b6125a8565b6101dd60005481565b6101c761029936600461513a565b612a6b565b6101c76102ac36600461513a565b612f2e565b6002546101dd565b6000546101dd565b6101c76102cf36600461513a565b61347d565b6101c76102e236600461513a565b613817565b6101c76102f536600461513a565b613bb1565b6101c761030836600461513a565b614074565b6101c761031b36600461513a565b6145c6565b6101c761032e36600461513a565b6148d2565b6101c761034136600461513a565b614d95565b60016020526000908152604090208054819061036190615617565b80601f016020809104026020016040519081016040528092919081815260200182805461038d90615617565b80156103da5780601f106103af576101008083540402835291602001916103da565b820191906000526020600020905b8154815290600101906020018083116103bd57829003601f168201915b5050505050908060010180546103ef90615617565b80601f016020809104026020016040519081016040528092919081815260200182805461041b90615617565b80156104685780601f1061043d57610100808354040283529160200191610468565b820191906000526020600020905b81548152906001019060200180831161044b57829003601f168201915b50505050509080600201805461047d90615617565b80601f01602080910402602001604051908101604052809291908181526020018280546104a990615617565b80156104f65780601f106104cb576101008083540402835291602001916104f6565b820191906000526020600020905b8154815290600101906020018083116104d957829003601f168201915b50505050509080600301805461050b90615617565b80601f016020809104026020016040519081016040528092919081815260200182805461053790615617565b80156105845780601f1061055957610100808354040283529160200191610584565b820191906000526020600020905b81548152906001019060200180831161056757829003601f168201915b50505050509080600401805461059990615617565b80601f01602080910402602001604051908101604052809291908181526020018280546105c590615617565b80156106125780601f106105e757610100808354040283529160200191610612565b820191906000526020600020905b8154815290600101906020018083116105f557829003601f168201915b50505050509080600501805461062790615617565b80601f016020809104026020016040519081016040528092919081815260200182805461065390615617565b80156106a05780601f10610675576101008083540402835291602001916106a0565b820191906000526020600020905b81548152906001019060200180831161068357829003601f168201915b5050505050908060060180546106b590615617565b80601f01602080910402602001604051908101604052809291908181526020018280546106e190615617565b801561072e5780601f106107035761010080835404028352916020019161072e565b820191906000526020600020905b81548152906001019060200180831161071157829003601f168201915b50505050509080600701805461074390615617565b80601f016020809104026020016040519081016040528092919081815260200182805461076f90615617565b80156107bc5780601f10610791576101008083540402835291602001916107bc565b820191906000526020600020905b81548152906001019060200180831161079f57829003601f168201915b5050505050908060080180546107d190615617565b80601f01602080910402602001604051908101604052809291908181526020018280546107fd90615617565b801561084a5780601f1061081f5761010080835404028352916020019161084a565b820191906000526020600020905b81548152906001019060200180831161082d57829003601f168201915b5050505050905089565b6040805160c0810182528781526020808201889052818301879052606082018690526080820185905260a082018490526002546000908152600382529290922081518051929391926108a992849201906150a1565b5060208281015180516108c292600185019201906150a1565b50604082015180516108de9160028401916020909101906150a1565b50606082015180516108fa9160038401916020909101906150a1565b50608082015180516109169160048401916020909101906150a1565b5060a082015180516109329160058401916020909101906150a1565b50506002546040519091507f1ed675bb725b3a8b0434b9ee956fe05e4c0e79f9dc67c3f1a717a5bb1fd88fd390600090a2600280549060006109738361566b565b9190505550505050505050565b6060600060016000848152602001908152602001600020604051806101200160405290816000820180546109b390615617565b80601f01602080910402602001604051908101604052809291908181526020018280546109df90615617565b8015610a2c5780601f10610a0157610100808354040283529160200191610a2c565b820191906000526020600020905b815481529060010190602001808311610a0f57829003601f168201915b50505050508152602001600182018054610a4590615617565b80601f0160208091040260200160405190810160405280929190818152602001828054610a7190615617565b8015610abe5780601f10610a9357610100808354040283529160200191610abe565b820191906000526020600020905b815481529060010190602001808311610aa157829003601f168201915b50505050508152602001600282018054610ad790615617565b80601f0160208091040260200160405190810160405280929190818152602001828054610b0390615617565b8015610b505780601f10610b2557610100808354040283529160200191610b50565b820191906000526020600020905b815481529060010190602001808311610b3357829003601f168201915b50505050508152602001600382018054610b6990615617565b80601f0160208091040260200160405190810160405280929190818152602001828054610b9590615617565b8015610be25780601f10610bb757610100808354040283529160200191610be2565b820191906000526020600020905b815481529060010190602001808311610bc557829003601f168201915b50505050508152602001600482018054610bfb90615617565b80601f0160208091040260200160405190810160405280929190818152602001828054610c2790615617565b8015610c745780601f10610c4957610100808354040283529160200191610c74565b820191906000526020600020905b815481529060010190602001808311610c5757829003601f168201915b50505050508152602001600582018054610c8d90615617565b80601f0160208091040260200160405190810160405280929190818152602001828054610cb990615617565b8015610d065780601f10610cdb57610100808354040283529160200191610d06565b820191906000526020600020905b815481529060010190602001808311610ce957829003601f168201915b50505050508152602001600682018054610d1f90615617565b80601f0160208091040260200160405190810160405280929190818152602001828054610d4b90615617565b8015610d985780601f10610d6d57610100808354040283529160200191610d98565b820191906000526020600020905b815481529060010190602001808311610d7b57829003601f168201915b50505050508152602001600782018054610db190615617565b80601f0160208091040260200160405190810160405280929190818152602001828054610ddd90615617565b8015610e2a5780601f10610dff57610100808354040283529160200191610e2a565b820191906000526020600020905b815481529060010190602001808311610e0d57829003601f168201915b50505050508152602001600882018054610e4390615617565b80601f0160208091040260200160405190810160405280929190818152602001828054610e6f90615617565b8015610ebc5780601f10610e9157610100808354040283529160200191610ebc565b820191906000526020600020905b815481529060010190602001808311610e9f57829003601f168201915b5050509190925250505060c001519392505050565b606060006001600084815260200190815260200160002060405180610120016040529081600082018054610f0490615617565b80601f0160208091040260200160405190810160405280929190818152602001828054610f3090615617565b8015610f7d5780601f10610f5257610100808354040283529160200191610f7d565b820191906000526020600020905b815481529060010190602001808311610f6057829003601f168201915b50505050508152602001600182018054610f9690615617565b80601f0160208091040260200160405190810160405280929190818152602001828054610fc290615617565b801561100f5780601f10610fe45761010080835404028352916020019161100f565b820191906000526020600020905b815481529060010190602001808311610ff257829003601f168201915b5050505050815260200160028201805461102890615617565b80601f016020809104026020016040519081016040528092919081815260200182805461105490615617565b80156110a15780601f10611076576101008083540402835291602001916110a1565b820191906000526020600020905b81548152906001019060200180831161108457829003601f168201915b505050505081526020016003820180546110ba90615617565b80601f01602080910402602001604051908101604052809291908181526020018280546110e690615617565b80156111335780601f1061110857610100808354040283529160200191611133565b820191906000526020600020905b81548152906001019060200180831161111657829003601f168201915b5050505050815260200160048201805461114c90615617565b80601f016020809104026020016040519081016040528092919081815260200182805461117890615617565b80156111c55780601f1061119a576101008083540402835291602001916111c5565b820191906000526020600020905b8154815290600101906020018083116111a857829003601f168201915b505050505081526020016005820180546111de90615617565b80601f016020809104026020016040519081016040528092919081815260200182805461120a90615617565b80156112575780601f1061122c57610100808354040283529160200191611257565b820191906000526020600020905b81548152906001019060200180831161123a57829003601f168201915b5050505050815260200160068201805461127090615617565b80601f016020809104026020016040519081016040528092919081815260200182805461129c90615617565b80156112e95780601f106112be576101008083540402835291602001916112e9565b820191906000526020600020905b8154815290600101906020018083116112cc57829003601f168201915b5050505050815260200160078201805461130290615617565b80601f016020809104026020016040519081016040528092919081815260200182805461132e90615617565b801561137b5780601f106113505761010080835404028352916020019161137b565b820191906000526020600020905b81548152906001019060200180831161135e57829003601f168201915b5050505050815260200160088201805461139490615617565b80601f01602080910402602001604051908101604052809291908181526020018280546113c090615617565b801561140d5780601f106113e25761010080835404028352916020019161140d565b820191906000526020600020905b8154815290600101906020018083116113f057829003601f168201915b50505091909252505050602001519392505050565b60606000600360008481526020019081526020016000206040518060c001604052908160008201805461145490615617565b80601f016020809104026020016040519081016040528092919081815260200182805461148090615617565b80156114cd5780601f106114a2576101008083540402835291602001916114cd565b820191906000526020600020905b8154815290600101906020018083116114b057829003601f168201915b505050505081526020016001820180546114e690615617565b80601f016020809104026020016040519081016040528092919081815260200182805461151290615617565b801561155f5780601f106115345761010080835404028352916020019161155f565b820191906000526020600020905b81548152906001019060200180831161154257829003601f168201915b5050505050815260200160028201805461157890615617565b80601f01602080910402602001604051908101604052809291908181526020018280546115a490615617565b80156115f15780601f106115c6576101008083540402835291602001916115f1565b820191906000526020600020905b8154815290600101906020018083116115d457829003601f168201915b5050505050815260200160038201805461160a90615617565b80601f016020809104026020016040519081016040528092919081815260200182805461163690615617565b80156116835780601f1061165857610100808354040283529160200191611683565b820191906000526020600020905b81548152906001019060200180831161166657829003601f168201915b5050505050815260200160048201805461169c90615617565b80601f01602080910402602001604051908101604052809291908181526020018280546116c890615617565b80156117155780601f106116ea57610100808354040283529160200191611715565b820191906000526020600020905b8154815290600101906020018083116116f857829003601f168201915b5050505050815260200160058201805461172e90615617565b80601f016020809104026020016040519081016040528092919081815260200182805461175a90615617565b80156117a75780601f1061177c576101008083540402835291602001916117a7565b820191906000526020600020905b81548152906001019060200180831161178a57829003601f168201915b50505091909252505050604001519392505050565b6003602052600090815260409020805481906117d790615617565b80601f016020809104026020016040519081016040528092919081815260200182805461180390615617565b80156118505780601f1061182557610100808354040283529160200191611850565b820191906000526020600020905b81548152906001019060200180831161183357829003601f168201915b50505050509080600101805461186590615617565b80601f016020809104026020016040519081016040528092919081815260200182805461189190615617565b80156118de5780601f106118b3576101008083540402835291602001916118de565b820191906000526020600020905b8154815290600101906020018083116118c157829003601f168201915b5050505050908060020180546118f390615617565b80601f016020809104026020016040519081016040528092919081815260200182805461191f90615617565b801561196c5780601f106119415761010080835404028352916020019161196c565b820191906000526020600020905b81548152906001019060200180831161194f57829003601f168201915b50505050509080600301805461198190615617565b80601f01602080910402602001604051908101604052809291908181526020018280546119ad90615617565b80156119fa5780601f106119cf576101008083540402835291602001916119fa565b820191906000526020600020905b8154815290600101906020018083116119dd57829003601f168201915b505050505090806004018054611a0f90615617565b80601f0160208091040260200160405190810160405280929190818152602001828054611a3b90615617565b8015611a885780601f10611a5d57610100808354040283529160200191611a88565b820191906000526020600020905b815481529060010190602001808311611a6b57829003601f168201915b505050505090806005018054611a9d90615617565b80601f0160208091040260200160405190810160405280929190818152602001828054611ac990615617565b8015611b165780601f10611aeb57610100808354040283529160200191611b16565b820191906000526020600020905b815481529060010190602001808311611af957829003601f168201915b5050505050905086565b606060006001600084815260200190815260200160002060405180610120016040529081600082018054611b5390615617565b80601f0160208091040260200160405190810160405280929190818152602001828054611b7f90615617565b8015611bcc5780601f10611ba157610100808354040283529160200191611bcc565b820191906000526020600020905b815481529060010190602001808311611baf57829003601f168201915b50505050508152602001600182018054611be590615617565b80601f0160208091040260200160405190810160405280929190818152602001828054611c1190615617565b8015611c5e5780601f10611c3357610100808354040283529160200191611c5e565b820191906000526020600020905b815481529060010190602001808311611c4157829003601f168201915b50505050508152602001600282018054611c7790615617565b80601f0160208091040260200160405190810160405280929190818152602001828054611ca390615617565b8015611cf05780601f10611cc557610100808354040283529160200191611cf0565b820191906000526020600020905b815481529060010190602001808311611cd357829003601f168201915b50505050508152602001600382018054611d0990615617565b80601f0160208091040260200160405190810160405280929190818152602001828054611d3590615617565b8015611d825780601f10611d5757610100808354040283529160200191611d82565b820191906000526020600020905b815481529060010190602001808311611d6557829003601f168201915b50505050508152602001600482018054611d9b90615617565b80601f0160208091040260200160405190810160405280929190818152602001828054611dc790615617565b8015611e145780601f10611de957610100808354040283529160200191611e14565b820191906000526020600020905b815481529060010190602001808311611df757829003601f168201915b50505050508152602001600582018054611e2d90615617565b80601f0160208091040260200160405190810160405280929190818152602001828054611e5990615617565b8015611ea65780601f10611e7b57610100808354040283529160200191611ea6565b820191906000526020600020905b815481529060010190602001808311611e8957829003601f168201915b50505050508152602001600682018054611ebf90615617565b80601f0160208091040260200160405190810160405280929190818152602001828054611eeb90615617565b8015611f385780601f10611f0d57610100808354040283529160200191611f38565b820191906000526020600020905b815481529060010190602001808311611f1b57829003601f168201915b50505050508152602001600782018054611f5190615617565b80601f0160208091040260200160405190810160405280929190818152602001828054611f7d90615617565b8015611fca5780601f10611f9f57610100808354040283529160200191611fca565b820191906000526020600020905b815481529060010190602001808311611fad57829003601f168201915b50505050508152602001600882018054611fe390615617565b80601f016020809104026020016040519081016040528092919081815260200182805461200f90615617565b801561205c5780601f106120315761010080835404028352916020019161205c565b820191906000526020600020905b81548152906001019060200180831161203f57829003601f168201915b5050509190925250505060e001519392505050565b6040518061012001604052808a815260200189815260200188815260200187815260200186815260200185815260200184815260200183815260200182815250600160008054815260200190815260200160002060008201518160000190805190602001906120e19291906150a1565b5060208281015180516120fa92600185019201906150a1565b50604082015180516121169160028401916020909101906150a1565b50606082015180516121329160038401916020909101906150a1565b506080820151805161214e9160048401916020909101906150a1565b5060a0820151805161216a9160058401916020909101906150a1565b5060c082015180516121869160068401916020909101906150a1565b5060e082015180516121a29160078401916020909101906150a1565b5061010082015180516121bf9160088401916020909101906150a1565b5050600080546040519092507fe9be1e104e3ee33ef5f2ba4ef06a07c610202a05358b53684f13f171e96eb3af9190a26000805490806121fe8361566b565b9190505550505050505050505050565b60606000600360008481526020019081526020016000206040518060c001604052908160008201805461224090615617565b80601f016020809104026020016040519081016040528092919081815260200182805461226c90615617565b80156122b95780601f1061228e576101008083540402835291602001916122b9565b820191906000526020600020905b81548152906001019060200180831161229c57829003601f168201915b505050505081526020016001820180546122d290615617565b80601f01602080910402602001604051908101604052809291908181526020018280546122fe90615617565b801561234b5780601f106123205761010080835404028352916020019161234b565b820191906000526020600020905b81548152906001019060200180831161232e57829003601f168201915b5050505050815260200160028201805461236490615617565b80601f016020809104026020016040519081016040528092919081815260200182805461239090615617565b80156123dd5780601f106123b2576101008083540402835291602001916123dd565b820191906000526020600020905b8154815290600101906020018083116123c057829003601f168201915b505050505081526020016003820180546123f690615617565b80601f016020809104026020016040519081016040528092919081815260200182805461242290615617565b801561246f5780601f106124445761010080835404028352916020019161246f565b820191906000526020600020905b81548152906001019060200180831161245257829003601f168201915b5050505050815260200160048201805461248890615617565b80601f01602080910402602001604051908101604052809291908181526020018280546124b490615617565b80156125015780601f106124d657610100808354040283529160200191612501565b820191906000526020600020905b8154815290600101906020018083116124e457829003601f168201915b5050505050815260200160058201805461251a90615617565b80601f016020809104026020016040519081016040528092919081815260200182805461254690615617565b80156125935780601f1061256857610100808354040283529160200191612593565b820191906000526020600020905b81548152906001019060200180831161257657829003601f168201915b50505091909252505050606001519392505050565b6060600060016000848152602001908152602001600020604051806101200160405290816000820180546125db90615617565b80601f016020809104026020016040519081016040528092919081815260200182805461260790615617565b80156126545780601f1061262957610100808354040283529160200191612654565b820191906000526020600020905b81548152906001019060200180831161263757829003601f168201915b5050505050815260200160018201805461266d90615617565b80601f016020809104026020016040519081016040528092919081815260200182805461269990615617565b80156126e65780601f106126bb576101008083540402835291602001916126e6565b820191906000526020600020905b8154815290600101906020018083116126c957829003601f168201915b505050505081526020016002820180546126ff90615617565b80601f016020809104026020016040519081016040528092919081815260200182805461272b90615617565b80156127785780601f1061274d57610100808354040283529160200191612778565b820191906000526020600020905b81548152906001019060200180831161275b57829003601f168201915b5050505050815260200160038201805461279190615617565b80601f01602080910402602001604051908101604052809291908181526020018280546127bd90615617565b801561280a5780601f106127df5761010080835404028352916020019161280a565b820191906000526020600020905b8154815290600101906020018083116127ed57829003601f168201915b5050505050815260200160048201805461282390615617565b80601f016020809104026020016040519081016040528092919081815260200182805461284f90615617565b801561289c5780601f106128715761010080835404028352916020019161289c565b820191906000526020600020905b81548152906001019060200180831161287f57829003601f168201915b505050505081526020016005820180546128b590615617565b80601f01602080910402602001604051908101604052809291908181526020018280546128e190615617565b801561292e5780601f106129035761010080835404028352916020019161292e565b820191906000526020600020905b81548152906001019060200180831161291157829003601f168201915b5050505050815260200160068201805461294790615617565b80601f016020809104026020016040519081016040528092919081815260200182805461297390615617565b80156129c05780601f10612995576101008083540402835291602001916129c0565b820191906000526020600020905b8154815290600101906020018083116129a357829003601f168201915b505050505081526020016007820180546129d990615617565b80601f0160208091040260200160405190810160405280929190818152602001828054612a0590615617565b8015612a525780601f10612a2757610100808354040283529160200191612a52565b820191906000526020600020905b815481529060010190602001808311612a3557829003601f168201915b5050505050815260200160088201805461251a90615617565b606060006001600084815260200190815260200160002060405180610120016040529081600082018054612a9e90615617565b80601f0160208091040260200160405190810160405280929190818152602001828054612aca90615617565b8015612b175780601f10612aec57610100808354040283529160200191612b17565b820191906000526020600020905b815481529060010190602001808311612afa57829003601f168201915b50505050508152602001600182018054612b3090615617565b80601f0160208091040260200160405190810160405280929190818152602001828054612b5c90615617565b8015612ba95780601f10612b7e57610100808354040283529160200191612ba9565b820191906000526020600020905b815481529060010190602001808311612b8c57829003601f168201915b50505050508152602001600282018054612bc290615617565b80601f0160208091040260200160405190810160405280929190818152602001828054612bee90615617565b8015612c3b5780601f10612c1057610100808354040283529160200191612c3b565b820191906000526020600020905b815481529060010190602001808311612c1e57829003601f168201915b50505050508152602001600382018054612c5490615617565b80601f0160208091040260200160405190810160405280929190818152602001828054612c8090615617565b8015612ccd5780601f10612ca257610100808354040283529160200191612ccd565b820191906000526020600020905b815481529060010190602001808311612cb057829003601f168201915b50505050508152602001600482018054612ce690615617565b80601f0160208091040260200160405190810160405280929190818152602001828054612d1290615617565b8015612d5f5780601f10612d3457610100808354040283529160200191612d5f565b820191906000526020600020905b815481529060010190602001808311612d4257829003601f168201915b50505050508152602001600582018054612d7890615617565b80601f0160208091040260200160405190810160405280929190818152602001828054612da490615617565b8015612df15780601f10612dc657610100808354040283529160200191612df1565b820191906000526020600020905b815481529060010190602001808311612dd457829003601f168201915b50505050508152602001600682018054612e0a90615617565b80601f0160208091040260200160405190810160405280929190818152602001828054612e3690615617565b8015612e835780601f10612e5857610100808354040283529160200191612e83565b820191906000526020600020905b815481529060010190602001808311612e6657829003601f168201915b50505050508152602001600782018054612e9c90615617565b80601f0160208091040260200160405190810160405280929190818152602001828054612ec890615617565b8015612f155780601f10612eea57610100808354040283529160200191612f15565b820191906000526020600020905b815481529060010190602001808311612ef857829003601f168201915b5050505050815260200160088201805461172e90615617565b606060006001600084815260200190815260200160002060405180610120016040529081600082018054612f6190615617565b80601f0160208091040260200160405190810160405280929190818152602001828054612f8d90615617565b8015612fda5780601f10612faf57610100808354040283529160200191612fda565b820191906000526020600020905b815481529060010190602001808311612fbd57829003601f168201915b50505050508152602001600182018054612ff390615617565b80601f016020809104026020016040519081016040528092919081815260200182805461301f90615617565b801561306c5780601f106130415761010080835404028352916020019161306c565b820191906000526020600020905b81548152906001019060200180831161304f57829003601f168201915b5050505050815260200160028201805461308590615617565b80601f01602080910402602001604051908101604052809291908181526020018280546130b190615617565b80156130fe5780601f106130d3576101008083540402835291602001916130fe565b820191906000526020600020905b8154815290600101906020018083116130e157829003601f168201915b5050505050815260200160038201805461311790615617565b80601f016020809104026020016040519081016040528092919081815260200182805461314390615617565b80156131905780601f1061316557610100808354040283529160200191613190565b820191906000526020600020905b81548152906001019060200180831161317357829003601f168201915b505050505081526020016004820180546131a990615617565b80601f01602080910402602001604051908101604052809291908181526020018280546131d590615617565b80156132225780601f106131f757610100808354040283529160200191613222565b820191906000526020600020905b81548152906001019060200180831161320557829003601f168201915b5050505050815260200160058201805461323b90615617565b80601f016020809104026020016040519081016040528092919081815260200182805461326790615617565b80156132b45780601f10613289576101008083540402835291602001916132b4565b820191906000526020600020905b81548152906001019060200180831161329757829003601f168201915b505050505081526020016006820180546132cd90615617565b80601f01602080910402602001604051908101604052809291908181526020018280546132f990615617565b80156133465780601f1061331b57610100808354040283529160200191613346565b820191906000526020600020905b81548152906001019060200180831161332957829003601f168201915b5050505050815260200160078201805461335f90615617565b80601f016020809104026020016040519081016040528092919081815260200182805461338b90615617565b80156133d85780601f106133ad576101008083540402835291602001916133d8565b820191906000526020600020905b8154815290600101906020018083116133bb57829003601f168201915b505050505081526020016008820180546133f190615617565b80601f016020809104026020016040519081016040528092919081815260200182805461341d90615617565b801561346a5780601f1061343f5761010080835404028352916020019161346a565b820191906000526020600020905b81548152906001019060200180831161344d57829003601f168201915b5050509190925250509051949350505050565b60606000600360008481526020019081526020016000206040518060c00160405290816000820180546134af90615617565b80601f01602080910402602001604051908101604052809291908181526020018280546134db90615617565b80156135285780601f106134fd57610100808354040283529160200191613528565b820191906000526020600020905b81548152906001019060200180831161350b57829003601f168201915b5050505050815260200160018201805461354190615617565b80601f016020809104026020016040519081016040528092919081815260200182805461356d90615617565b80156135ba5780601f1061358f576101008083540402835291602001916135ba565b820191906000526020600020905b81548152906001019060200180831161359d57829003601f168201915b505050505081526020016002820180546135d390615617565b80601f01602080910402602001604051908101604052809291908181526020018280546135ff90615617565b801561364c5780601f106136215761010080835404028352916020019161364c565b820191906000526020600020905b81548152906001019060200180831161362f57829003601f168201915b5050505050815260200160038201805461366590615617565b80601f016020809104026020016040519081016040528092919081815260200182805461369190615617565b80156136de5780601f106136b3576101008083540402835291602001916136de565b820191906000526020600020905b8154815290600101906020018083116136c157829003601f168201915b505050505081526020016004820180546136f790615617565b80601f016020809104026020016040519081016040528092919081815260200182805461372390615617565b80156137705780601f1061374557610100808354040283529160200191613770565b820191906000526020600020905b81548152906001019060200180831161375357829003601f168201915b5050505050815260200160058201805461378990615617565b80601f01602080910402602001604051908101604052809291908181526020018280546137b590615617565b80156138025780601f106137d757610100808354040283529160200191613802565b820191906000526020600020905b8154815290600101906020018083116137e557829003601f168201915b50505091909252505050608001519392505050565b60606000600360008481526020019081526020016000206040518060c001604052908160008201805461384990615617565b80601f016020809104026020016040519081016040528092919081815260200182805461387590615617565b80156138c25780601f10613897576101008083540402835291602001916138c2565b820191906000526020600020905b8154815290600101906020018083116138a557829003601f168201915b505050505081526020016001820180546138db90615617565b80601f016020809104026020016040519081016040528092919081815260200182805461390790615617565b80156139545780601f1061392957610100808354040283529160200191613954565b820191906000526020600020905b81548152906001019060200180831161393757829003601f168201915b5050505050815260200160028201805461396d90615617565b80601f016020809104026020016040519081016040528092919081815260200182805461399990615617565b80156139e65780601f106139bb576101008083540402835291602001916139e6565b820191906000526020600020905b8154815290600101906020018083116139c957829003601f168201915b505050505081526020016003820180546139ff90615617565b80601f0160208091040260200160405190810160405280929190818152602001828054613a2b90615617565b8015613a785780601f10613a4d57610100808354040283529160200191613a78565b820191906000526020600020905b815481529060010190602001808311613a5b57829003601f168201915b50505050508152602001600482018054613a9190615617565b80601f0160208091040260200160405190810160405280929190818152602001828054613abd90615617565b8015613b0a5780601f10613adf57610100808354040283529160200191613b0a565b820191906000526020600020905b815481529060010190602001808311613aed57829003601f168201915b50505050508152602001600582018054613b2390615617565b80601f0160208091040260200160405190810160405280929190818152602001828054613b4f90615617565b8015613b9c5780601f10613b7157610100808354040283529160200191613b9c565b820191906000526020600020905b815481529060010190602001808311613b7f57829003601f168201915b5050509190925250505060a001519392505050565b606060006001600084815260200190815260200160002060405180610120016040529081600082018054613be490615617565b80601f0160208091040260200160405190810160405280929190818152602001828054613c1090615617565b8015613c5d5780601f10613c3257610100808354040283529160200191613c5d565b820191906000526020600020905b815481529060010190602001808311613c4057829003601f168201915b50505050508152602001600182018054613c7690615617565b80601f0160208091040260200160405190810160405280929190818152602001828054613ca290615617565b8015613cef5780601f10613cc457610100808354040283529160200191613cef565b820191906000526020600020905b815481529060010190602001808311613cd257829003601f168201915b50505050508152602001600282018054613d0890615617565b80601f0160208091040260200160405190810160405280929190818152602001828054613d3490615617565b8015613d815780601f10613d5657610100808354040283529160200191613d81565b820191906000526020600020905b815481529060010190602001808311613d6457829003601f168201915b50505050508152602001600382018054613d9a90615617565b80601f0160208091040260200160405190810160405280929190818152602001828054613dc690615617565b8015613e135780601f10613de857610100808354040283529160200191613e13565b820191906000526020600020905b815481529060010190602001808311613df657829003601f168201915b50505050508152602001600482018054613e2c90615617565b80601f0160208091040260200160405190810160405280929190818152602001828054613e5890615617565b8015613ea55780601f10613e7a57610100808354040283529160200191613ea5565b820191906000526020600020905b815481529060010190602001808311613e8857829003601f168201915b50505050508152602001600582018054613ebe90615617565b80601f0160208091040260200160405190810160405280929190818152602001828054613eea90615617565b8015613f375780601f10613f0c57610100808354040283529160200191613f37565b820191906000526020600020905b815481529060010190602001808311613f1a57829003601f168201915b50505050508152602001600682018054613f5090615617565b80601f0160208091040260200160405190810160405280929190818152602001828054613f7c90615617565b8015613fc95780601f10613f9e57610100808354040283529160200191613fc9565b820191906000526020600020905b815481529060010190602001808311613fac57829003601f168201915b50505050508152602001600782018054613fe290615617565b80601f016020809104026020016040519081016040528092919081815260200182805461400e90615617565b801561405b5780601f106140305761010080835404028352916020019161405b565b820191906000526020600020905b81548152906001019060200180831161403e57829003601f168201915b5050505050815260200160088201805461378990615617565b6060600060016000848152602001908152602001600020604051806101200160405290816000820180546140a790615617565b80601f01602080910402602001604051908101604052809291908181526020018280546140d390615617565b80156141205780601f106140f557610100808354040283529160200191614120565b820191906000526020600020905b81548152906001019060200180831161410357829003601f168201915b5050505050815260200160018201805461413990615617565b80601f016020809104026020016040519081016040528092919081815260200182805461416590615617565b80156141b25780601f10614187576101008083540402835291602001916141b2565b820191906000526020600020905b81548152906001019060200180831161419557829003601f168201915b505050505081526020016002820180546141cb90615617565b80601f01602080910402602001604051908101604052809291908181526020018280546141f790615617565b80156142445780601f1061421957610100808354040283529160200191614244565b820191906000526020600020905b81548152906001019060200180831161422757829003601f168201915b5050505050815260200160038201805461425d90615617565b80601f016020809104026020016040519081016040528092919081815260200182805461428990615617565b80156142d65780601f106142ab576101008083540402835291602001916142d6565b820191906000526020600020905b8154815290600101906020018083116142b957829003601f168201915b505050505081526020016004820180546142ef90615617565b80601f016020809104026020016040519081016040528092919081815260200182805461431b90615617565b80156143685780601f1061433d57610100808354040283529160200191614368565b820191906000526020600020905b81548152906001019060200180831161434b57829003601f168201915b5050505050815260200160058201805461438190615617565b80601f01602080910402602001604051908101604052809291908181526020018280546143ad90615617565b80156143fa5780601f106143cf576101008083540402835291602001916143fa565b820191906000526020600020905b8154815290600101906020018083116143dd57829003601f168201915b5050505050815260200160068201805461441390615617565b80601f016020809104026020016040519081016040528092919081815260200182805461443f90615617565b801561448c5780601f106144615761010080835404028352916020019161448c565b820191906000526020600020905b81548152906001019060200180831161446f57829003601f168201915b505050505081526020016007820180546144a590615617565b80601f01602080910402602001604051908101604052809291908181526020018280546144d190615617565b801561451e5780601f106144f35761010080835404028352916020019161451e565b820191906000526020600020905b81548152906001019060200180831161450157829003601f168201915b5050505050815260200160088201805461453790615617565b80601f016020809104026020016040519081016040528092919081815260200182805461456390615617565b80156145b05780601f10614585576101008083540402835291602001916145b0565b820191906000526020600020905b81548152906001019060200180831161459357829003601f168201915b5050509190925250505061010001519392505050565b60606000600360008481526020019081526020016000206040518060c00160405290816000820180546145f890615617565b80601f016020809104026020016040519081016040528092919081815260200182805461462490615617565b80156146715780601f1061464657610100808354040283529160200191614671565b820191906000526020600020905b81548152906001019060200180831161465457829003601f168201915b5050505050815260200160018201805461468a90615617565b80601f01602080910402602001604051908101604052809291908181526020018280546146b690615617565b80156147035780601f106146d857610100808354040283529160200191614703565b820191906000526020600020905b8154815290600101906020018083116146e657829003601f168201915b5050505050815260200160028201805461471c90615617565b80601f016020809104026020016040519081016040528092919081815260200182805461474890615617565b80156147955780601f1061476a57610100808354040283529160200191614795565b820191906000526020600020905b81548152906001019060200180831161477857829003601f168201915b505050505081526020016003820180546147ae90615617565b80601f01602080910402602001604051908101604052809291908181526020018280546147da90615617565b80156148275780601f106147fc57610100808354040283529160200191614827565b820191906000526020600020905b81548152906001019060200180831161480a57829003601f168201915b5050505050815260200160048201805461484090615617565b80601f016020809104026020016040519081016040528092919081815260200182805461486c90615617565b80156148b95780601f1061488e576101008083540402835291602001916148b9565b820191906000526020600020905b81548152906001019060200180831161489c57829003601f168201915b505050505081526020016005820180546133f190615617565b60606000600160008481526020019081526020016000206040518061012001604052908160008201805461490590615617565b80601f016020809104026020016040519081016040528092919081815260200182805461493190615617565b801561497e5780601f106149535761010080835404028352916020019161497e565b820191906000526020600020905b81548152906001019060200180831161496157829003601f168201915b5050505050815260200160018201805461499790615617565b80601f01602080910402602001604051908101604052809291908181526020018280546149c390615617565b8015614a105780601f106149e557610100808354040283529160200191614a10565b820191906000526020600020905b8154815290600101906020018083116149f357829003601f168201915b50505050508152602001600282018054614a2990615617565b80601f0160208091040260200160405190810160405280929190818152602001828054614a5590615617565b8015614aa25780601f10614a7757610100808354040283529160200191614aa2565b820191906000526020600020905b815481529060010190602001808311614a8557829003601f168201915b50505050508152602001600382018054614abb90615617565b80601f0160208091040260200160405190810160405280929190818152602001828054614ae790615617565b8015614b345780601f10614b0957610100808354040283529160200191614b34565b820191906000526020600020905b815481529060010190602001808311614b1757829003601f168201915b50505050508152602001600482018054614b4d90615617565b80601f0160208091040260200160405190810160405280929190818152602001828054614b7990615617565b8015614bc65780601f10614b9b57610100808354040283529160200191614bc6565b820191906000526020600020905b815481529060010190602001808311614ba957829003601f168201915b50505050508152602001600582018054614bdf90615617565b80601f0160208091040260200160405190810160405280929190818152602001828054614c0b90615617565b8015614c585780601f10614c2d57610100808354040283529160200191614c58565b820191906000526020600020905b815481529060010190602001808311614c3b57829003601f168201915b50505050508152602001600682018054614c7190615617565b80601f0160208091040260200160405190810160405280929190818152602001828054614c9d90615617565b8015614cea5780601f10614cbf57610100808354040283529160200191614cea565b820191906000526020600020905b815481529060010190602001808311614ccd57829003601f168201915b50505050508152602001600782018054614d0390615617565b80601f0160208091040260200160405190810160405280929190818152602001828054614d2f90615617565b8015614d7c5780601f10614d5157610100808354040283529160200191614d7c565b820191906000526020600020905b815481529060010190602001808311614d5f57829003601f168201915b50505050508152602001600882018054613b2390615617565b60606000600360008481526020019081526020016000206040518060c0016040529081600082018054614dc790615617565b80601f0160208091040260200160405190810160405280929190818152602001828054614df390615617565b8015614e405780601f10614e1557610100808354040283529160200191614e40565b820191906000526020600020905b815481529060010190602001808311614e2357829003601f168201915b50505050508152602001600182018054614e5990615617565b80601f0160208091040260200160405190810160405280929190818152602001828054614e8590615617565b8015614ed25780601f10614ea757610100808354040283529160200191614ed2565b820191906000526020600020905b815481529060010190602001808311614eb557829003601f168201915b50505050508152602001600282018054614eeb90615617565b80601f0160208091040260200160405190810160405280929190818152602001828054614f1790615617565b8015614f645780601f10614f3957610100808354040283529160200191614f64565b820191906000526020600020905b815481529060010190602001808311614f4757829003601f168201915b50505050508152602001600382018054614f7d90615617565b80601f0160208091040260200160405190810160405280929190818152602001828054614fa990615617565b8015614ff65780601f10614fcb57610100808354040283529160200191614ff6565b820191906000526020600020905b815481529060010190602001808311614fd957829003601f168201915b5050505050815260200160048201805461500f90615617565b80601f016020809104026020016040519081016040528092919081815260200182805461503b90615617565b80156150885780601f1061505d57610100808354040283529160200191615088565b820191906000526020600020905b81548152906001019060200180831161506b57829003601f168201915b5050505050815260200160058201805461139490615617565b8280546150ad90615617565b90600052602060002090601f0160209004810192826150cf5760008555615115565b82601f106150e857805160ff1916838001178555615115565b82800160010185558215615115579182015b828111156151155782518255916020019190600101906150fa565b50615121929150615125565b5090565b5b808211156151215760008155600101615126565b60006020828403121561514c57600080fd5b5035919050565b6000815180845260005b818110156151795760208185018101518683018201520161515d565b8181111561518b576000602083870101525b50601f01601f19169290920160200192915050565b60006101208083526151b48184018d615153565b905082810360208401526151c8818c615153565b905082810360408401526151dc818b615153565b905082810360608401526151f0818a615153565b905082810360808401526152048189615153565b905082810360a08401526152188188615153565b905082810360c084015261522c8187615153565b905082810360e08401526152408186615153565b90508281036101008401526152558185615153565b9c9b505050505050505050505050565b7f4e487b7100000000000000000000000000000000000000000000000000000000600052604160045260246000fd5b600082601f8301126152a557600080fd5b813567ffffffffffffffff808211156152c0576152c0615265565b604051601f8301601f19908116603f011681019082821181831017156152e8576152e8615265565b8160405283815286602085880101111561530157600080fd5b836020870160208301376000602085830101528094505050505092915050565b60008060008060008060c0878903121561533a57600080fd5b863567ffffffffffffffff8082111561535257600080fd5b61535e8a838b01615294565b9750602089013591508082111561537457600080fd5b6153808a838b01615294565b9650604089013591508082111561539657600080fd5b6153a28a838b01615294565b955060608901359150808211156153b857600080fd5b6153c48a838b01615294565b945060808901359150808211156153da57600080fd5b6153e68a838b01615294565b935060a08901359150808211156153fc57600080fd5b5061540989828a01615294565b9150509295509295509295565b6020815260006154296020830184615153565b9392505050565b60c08152600061544360c0830189615153565b82810360208401526154558189615153565b905082810360408401526154698188615153565b9050828103606084015261547d8187615153565b905082810360808401526154918186615153565b905082810360a08401526154a58185615153565b9998505050505050505050565b60008060008060008060008060006101208a8c0312156154d157600080fd5b893567ffffffffffffffff808211156154e957600080fd5b6154f58d838e01615294565b9a5060208c013591508082111561550b57600080fd5b6155178d838e01615294565b995060408c013591508082111561552d57600080fd5b6155398d838e01615294565b985060608c013591508082111561554f57600080fd5b61555b8d838e01615294565b975060808c013591508082111561557157600080fd5b61557d8d838e01615294565b965060a08c013591508082111561559357600080fd5b61559f8d838e01615294565b955060c08c01359150808211156155b557600080fd5b6155c18d838e01615294565b945060e08c01359150808211156155d757600080fd5b6155e38d838e01615294565b93506101008c01359150808211156155fa57600080fd5b506156078c828d01615294565b9150509295985092959850929598565b60028104600182168061562b57607f821691505b60208210811415615665577f4e487b7100000000000000000000000000000000000000000000000000000000600052602260045260246000fd5b50919050565b60006000198214156156a6577f4e487b7100000000000000000000000000000000000000000000000000000000600052601160045260246000fd5b506001019056fea2646970667358221220e959beffd68b1626f48ce87720153aced5919cd6f792d0ef2ce0d1f9d832bad164736f6c634300080b0033",
  "immutableReferences": {},
  "source": "pragma solidity >= 0.8.11 <= 0.8.11;\r\npragma experimental ABIEncoderV2;\r\n//Evidence solidity code\r\ncontract Evidence {\r\n\r\n    uint public evidenceCount = 0; \r\n    mapping(uint => evidence) public evidenceList; \r\n     struct evidence\r\n     {\r\n       string evidence_id;\r\n       string officer_name;\r\n       string reported_crime;\r\n       string crime_details;\r\n       string evidence_details;\r\n       string crime_area;\r\n       string witness_name;\r\n       string witness_contact;\r\n       string crime_date;       \r\n     }\r\n \r\n   // events \r\n   event evidenceCreated(uint indexed _evidenceId);\r\n\r\n  \r\n   //function  to save evidence details\r\n   function createEvidence(string memory eid, string memory oname, string memory crime, string memory cd, string memory ed, string memory ca, string memory wn, string memory wc, string memory crime_dd) public {\r\n      evidenceList[evidenceCount] = evidence(eid, oname, crime, cd, ed, ca, wn, wc, crime_dd);\r\n      emit evidenceCreated(evidenceCount);\r\n      evidenceCount++;\r\n    }\r\n\r\n     //get evidence count\r\n    function getEvidenceCount()  public view returns (uint) {\r\n          return  evidenceCount;\r\n    }\r\n\r\n    function getEvidenceid(uint i) public view returns (string memory) {\r\n        evidence memory chq = evidenceList[i];\r\n\treturn chq.evidence_id;\r\n    }\r\n\r\n    function getOfficername(uint i) public view returns (string memory) {\r\n        evidence memory chq = evidenceList[i];\r\n\treturn chq.officer_name;\r\n    }      \r\n\r\n    function getReportedcrime(uint i) public view returns (string memory) {\r\n        evidence memory chq = evidenceList[i];\r\n\treturn chq.reported_crime;\r\n    }\r\n\r\n    function getCrimedetails(uint i) public view returns (string memory) {\r\n        evidence memory chq = evidenceList[i];\r\n\treturn chq.crime_details;\r\n    }     \r\n   \r\n    function getEvidencedetails(uint i) public view returns (string memory) {\r\n        evidence memory chq = evidenceList[i];\r\n\treturn chq.evidence_details;\r\n    }\r\n\r\n    function getCrimearea(uint i) public view returns (string memory) {\r\n        evidence memory chq = evidenceList[i];\r\n\treturn chq.crime_area;\r\n    }\r\n\r\n    function getWitnessname(uint i) public view returns (string memory) {\r\n        evidence memory chq = evidenceList[i];\r\n\treturn chq.witness_name;\r\n    }\r\n\r\n    function getCrimedate(uint i) public view returns (string memory) {\r\n        evidence memory chq = evidenceList[i];\r\n\treturn chq.crime_date;\r\n    }\r\n\r\n    function getWitnesscontact(uint i) public view returns (string memory) {\r\n        evidence memory chq = evidenceList[i];\r\n\treturn chq.witness_contact;\r\n    }\r\n           \r\n    uint public userCount = 0; \r\n    mapping(uint => user) public usersList; \r\n     struct user\r\n     {\r\n       string username;\r\n       string password;\r\n       string phone;\r\n       string email;\r\n       string station_address;\r\n       string officer_type;\r\n     }\r\n \r\n   // events\r\n \r\n   event userCreated(uint indexed _userId);\r\n \r\n  function createUser(string memory _username, string memory _password, string memory _phone, string memory em, string memory sa, string memory otype) public {\r\n      usersList[userCount] = user(_username, _password, _phone, em, sa, otype);\r\n      emit userCreated(userCount);\r\n      userCount++;\r\n    }\r\n\r\n    \r\n     //get user count\r\n    function getUserCount()  public view returns (uint) {\r\n          return  userCount;\r\n    }\r\n\r\n    function getUsername(uint i) public view returns (string memory) {\r\n        user memory usr = usersList[i];\r\n\treturn usr.username;\r\n    }\r\n\r\n    function getPassword(uint i) public view returns (string memory) {\r\n        user memory usr = usersList[i];\r\n\treturn usr.password;\r\n    }\r\n\r\n    function getPhone(uint i) public view returns (string memory) {\r\n        user memory usr = usersList[i];\r\n\treturn usr.phone;\r\n    }\r\n\r\n    function getEmail(uint i) public view returns (string memory) {\r\n        user memory usr = usersList[i];\r\n\treturn usr.email;\r\n    }\r\n\r\n    function getStationaddress(uint i) public view returns (string memory) {\r\n        user memory usr = usersList[i];\r\n\treturn usr.station_address;\r\n    }\r\n\r\n    function getOfficerType(uint i) public view returns (string memory) {\r\n        user memory usr = usersList[i];\r\n\treturn usr.officer_type;\r\n    }\r\n}",
  "sourcePath": "C:\\Users\\Admin\\Desktop\\Blockchain\\hello-eth\\node_modules\\.bin\\contracts\\Evidence.sol",
  "compiler": {
    "name": "solc",
    "version": "0.8.11+commit.d7f03943.Emscripten.clang"
  },
  "schemaVersion": "3.4.4",
  "updatedAt": "2025-03-28T05:45:54.998Z",
  "networkType": "ethereum",
  "devdoc": {
    "kind": "dev",
    "methods": {},
    "version": 1
  },
  "userdoc": {
    "kind": "user",
    "methods": {},
    "version": 1
  }
}